:020000042000DA
:100000000248854600F008F8FEE7C04600100020D0
:100010000160704700687047802070B50425224B4E
:10002000224A80021A60224A224CD3690343D361D8
:1000300093692B439361204B1968214019609221E9
:100040001C68C9010C431C60D4692043D0619069CD
:100050001A4C28439061FF201A68000202401A607F
:100060001A68174811431960164BA360E268164BD3
:100070001343E360FFF7CEFF050001001348FFF7CD
:10008000C7FF0F48691CFFF7C3FF802140221048BB
:1000900009050B88636023681A42FCD00131814254
:1000A000F7D1002070BDC046D800002000127A00B1
:1000B00000100240FF00FFFF000801400044004024
:1000C00000040020410300000C2000000404002074
:0400D00001E8030838
:0400D4000000000820
:0400000520000000D7
:00000001FF
